{
  "contractName": "Queue",
  "abi": [
    {
      "inputs": [
        {
          "internalType": "uint256",
          "name": "data",
          "type": "uint256"
        }
      ],
      "name": "enqueue",
      "outputs": [],
      "stateMutability": "nonpayable",
      "type": "function"
    },
    {
      "inputs": [],
      "name": "dequeue",
      "outputs": [
        {
          "internalType": "uint256",
          "name": "data",
          "type": "uint256"
        }
      ],
      "stateMutability": "nonpayable",
      "type": "function"
    }
  ],
  "bytecode": "0x608060405260018055600060025534801561001957600080fd5b50610256806100296000396000f3fe608060405234801561001057600080fd5b50600436106100365760003560e01c80631ffc735d1461003b578063957908d114610057575b600080fd5b61005560048036038101906100509190610144565b610075565b005b61005f6100ab565b60405161006c9190610180565b60405180910390f35b60016002600082825461008891906101ca565b925050819055508060008060025481526020019081526020016000208190555050565b600060015460025410156100be57600080fd5b600080600154815260200190815260200160002054905060008060015481526020019081526020016000206000905560018060008282546100ff91906101ca565b9250508190555090565b600080fd5b6000819050919050565b6101218161010e565b811461012c57600080fd5b50565b60008135905061013e81610118565b92915050565b60006020828403121561015a57610159610109565b5b60006101688482850161012f565b91505092915050565b61017a8161010e565b82525050565b60006020820190506101956000830184610171565b92915050565b7f4e487b7100000000000000000000000000000000000000000000000000000000600052601160045260246000fd5b60006101d58261010e565b91506101e08361010e565b9250827fffffffffffffffffffffffffffffffffffffffffffffffffffffffffffffffff038211156102155761021461019b565b5b82820190509291505056fea2646970667358221220b5290af834fadfce183cb397ce8717862b249089c5a03529ebab642284bc1d9664736f6c634300080a0033",
  "immutableReferences": {},
  "source": "pragma solidity >=0.4.22 <0.9.0;\n\ncontract Queue {\n    mapping(uint => uint) queue;\n    uint first = 1;\n    uint last = 0;\n\n    function enqueue(uint data) public {\n        last += 1;\n        queue[last] = data;\n    }\n\n    function dequeue() public returns (uint data) {\n        require(last >= first);  // non-empty queue\n\n        data = queue[first];\n\n        delete queue[first];\n        first += 1;\n    }\n}",
  "sourcePath": "/home/rdkgpian/Desktop/SupplyChain/contracts/contracts/Queue.sol",
  "compiler": {
    "name": "solc",
    "version": "0.8.10+commit.fc410830.Emscripten.clang"
  },
  "schemaVersion": "3.4.3",
  "updatedAt": "2021-12-11T10:09:09.462Z",
  "devdoc": {
    "kind": "dev",
    "methods": {},
    "version": 1
  },
  "userdoc": {
    "kind": "user",
    "methods": {},
    "version": 1
  }
}