{
  "contractName": "SupplyChain",
  "abi": [
    {
      "anonymous": false,
      "inputs": [
        {
          "indexed": false,
          "internalType": "uint256",
          "name": "parent_itemId",
          "type": "uint256"
        },
        {
          "indexed": false,
          "internalType": "uint256[]",
          "name": "children_itemIds",
          "type": "uint256[]"
        }
      ],
      "name": "History",
      "type": "event"
    },
    {
      "anonymous": false,
      "inputs": [
        {
          "indexed": false,
          "internalType": "uint256",
          "name": "_node",
          "type": "uint256"
        }
      ],
      "name": "StartingNode",
      "type": "event"
    },
    {
      "anonymous": false,
      "inputs": [
        {
          "indexed": false,
          "internalType": "uint256",
          "name": "_userId",
          "type": "uint256"
        }
      ],
      "name": "UserAdded",
      "type": "event"
    },
    {
      "anonymous": false,
      "inputs": [
        {
          "indexed": false,
          "internalType": "uint256",
          "name": "_orderid",
          "type": "uint256"
        }
      ],
      "name": "orderReceived",
      "type": "event"
    },
    {
      "anonymous": false,
      "inputs": [
        {
          "indexed": false,
          "internalType": "uint256",
          "name": "_orderid",
          "type": "uint256"
        }
      ],
      "name": "orderRequested",
      "type": "event"
    },
    {
      "anonymous": false,
      "inputs": [
        {
          "indexed": false,
          "internalType": "uint256",
          "name": "_orderid",
          "type": "uint256"
        }
      ],
      "name": "orderShipped",
      "type": "event"
    },
    {
      "inputs": [
        {
          "internalType": "string",
          "name": "_userName",
          "type": "string"
        },
        {
          "internalType": "address",
          "name": "_userAddress",
          "type": "address"
        }
      ],
      "name": "addNewUser",
      "outputs": [
        {
          "internalType": "uint256",
          "name": "",
          "type": "uint256"
        }
      ],
      "stateMutability": "nonpayable",
      "type": "function"
    },
    {
      "inputs": [
        {
          "internalType": "address",
          "name": "_userAddress",
          "type": "address"
        }
      ],
      "name": "getCredentialsfromAddress",
      "outputs": [
        {
          "components": [
            {
              "internalType": "uint256",
              "name": "userId",
              "type": "uint256"
            },
            {
              "internalType": "string",
              "name": "userName",
              "type": "string"
            },
            {
              "internalType": "address",
              "name": "userAddress",
              "type": "address"
            }
          ],
          "internalType": "struct User.UserCredentials",
          "name": "",
          "type": "tuple"
        }
      ],
      "stateMutability": "view",
      "type": "function"
    },
    {
      "inputs": [
        {
          "internalType": "uint256",
          "name": "_userId",
          "type": "uint256"
        }
      ],
      "name": "getReceivedOrders",
      "outputs": [
        {
          "components": [
            {
              "internalType": "uint256",
              "name": "itemId",
              "type": "uint256"
            },
            {
              "internalType": "uint256",
              "name": "buyerId",
              "type": "uint256"
            },
            {
              "internalType": "string",
              "name": "itemName",
              "type": "string"
            },
            {
              "internalType": "uint256",
              "name": "orderId",
              "type": "uint256"
            },
            {
              "internalType": "bool",
              "name": "isShipped",
              "type": "bool"
            }
          ],
          "internalType": "struct User.ReceivedOrder[]",
          "name": "",
          "type": "tuple[]"
        }
      ],
      "stateMutability": "view",
      "type": "function"
    },
    {
      "inputs": [
        {
          "internalType": "uint256",
          "name": "_userId",
          "type": "uint256"
        }
      ],
      "name": "getRequestedOrders",
      "outputs": [
        {
          "components": [
            {
              "internalType": "uint256",
              "name": "itemId",
              "type": "uint256"
            },
            {
              "internalType": "uint256",
              "name": "sellerId",
              "type": "uint256"
            },
            {
              "internalType": "string",
              "name": "itemName",
              "type": "string"
            },
            {
              "internalType": "uint256",
              "name": "orderId",
              "type": "uint256"
            }
          ],
          "internalType": "struct User.RequestedOrder[]",
          "name": "",
          "type": "tuple[]"
        }
      ],
      "stateMutability": "view",
      "type": "function"
    },
    {
      "inputs": [
        {
          "internalType": "uint256",
          "name": "_userId",
          "type": "uint256"
        }
      ],
      "name": "getStock",
      "outputs": [
        {
          "components": [
            {
              "internalType": "address",
              "name": "ownerAddress",
              "type": "address"
            },
            {
              "internalType": "uint256",
              "name": "ownerId",
              "type": "uint256"
            },
            {
              "internalType": "string",
              "name": "ownerName",
              "type": "string"
            },
            {
              "internalType": "uint256",
              "name": "nodeId",
              "type": "uint256"
            },
            {
              "internalType": "uint256",
              "name": "itemId",
              "type": "uint256"
            },
            {
              "internalType": "string",
              "name": "itemName",
              "type": "string"
            },
            {
              "internalType": "uint256",
              "name": "cost",
              "type": "uint256"
            },
            {
              "internalType": "bool",
              "name": "isRetail",
              "type": "bool"
            },
            {
              "internalType": "string",
              "name": "location",
              "type": "string"
            }
          ],
          "internalType": "struct User.Stock[]",
          "name": "",
          "type": "tuple[]"
        }
      ],
      "stateMutability": "view",
      "type": "function"
    },
    {
      "inputs": [],
      "name": "getUsers",
      "outputs": [
        {
          "components": [
            {
              "internalType": "uint256",
              "name": "userId",
              "type": "uint256"
            },
            {
              "internalType": "string",
              "name": "userName",
              "type": "string"
            },
            {
              "internalType": "address",
              "name": "userAddress",
              "type": "address"
            }
          ],
          "internalType": "struct User.UserCredentials[]",
          "name": "",
          "type": "tuple[]"
        }
      ],
      "stateMutability": "view",
      "type": "function"
    },
    {
      "inputs": [
        {
          "internalType": "uint256",
          "name": "_userId",
          "type": "uint256"
        }
      ],
      "name": "getuserMetadata",
      "outputs": [
        {
          "components": [
            {
              "internalType": "address",
              "name": "ownerAddress",
              "type": "address"
            },
            {
              "internalType": "uint256",
              "name": "ownerId",
              "type": "uint256"
            },
            {
              "internalType": "string",
              "name": "ownerName",
              "type": "string"
            },
            {
              "internalType": "uint256",
              "name": "nodeId",
              "type": "uint256"
            },
            {
              "internalType": "uint256",
              "name": "itemId",
              "type": "uint256"
            },
            {
              "internalType": "string",
              "name": "itemName",
              "type": "string"
            },
            {
              "internalType": "uint256",
              "name": "cost",
              "type": "uint256"
            },
            {
              "internalType": "bool",
              "name": "isRetail",
              "type": "bool"
            },
            {
              "internalType": "string",
              "name": "location",
              "type": "string"
            }
          ],
          "internalType": "struct User.Stock[]",
          "name": "",
          "type": "tuple[]"
        },
        {
          "components": [
            {
              "internalType": "uint256",
              "name": "itemId",
              "type": "uint256"
            },
            {
              "internalType": "uint256",
              "name": "buyerId",
              "type": "uint256"
            },
            {
              "internalType": "string",
              "name": "itemName",
              "type": "string"
            },
            {
              "internalType": "uint256",
              "name": "orderId",
              "type": "uint256"
            },
            {
              "internalType": "bool",
              "name": "isShipped",
              "type": "bool"
            }
          ],
          "internalType": "struct User.ReceivedOrder[]",
          "name": "",
          "type": "tuple[]"
        },
        {
          "components": [
            {
              "internalType": "uint256",
              "name": "itemId",
              "type": "uint256"
            },
            {
              "internalType": "uint256",
              "name": "sellerId",
              "type": "uint256"
            },
            {
              "internalType": "string",
              "name": "itemName",
              "type": "string"
            },
            {
              "internalType": "uint256",
              "name": "orderId",
              "type": "uint256"
            }
          ],
          "internalType": "struct User.RequestedOrder[]",
          "name": "",
          "type": "tuple[]"
        }
      ],
      "stateMutability": "view",
      "type": "function"
    },
    {
      "inputs": [
        {
          "internalType": "uint256",
          "name": "",
          "type": "uint256"
        }
      ],
      "name": "nodes",
      "outputs": [
        {
          "internalType": "address",
          "name": "owner",
          "type": "address"
        },
        {
          "internalType": "uint256",
          "name": "ownerId",
          "type": "uint256"
        },
        {
          "internalType": "string",
          "name": "ownerName",
          "type": "string"
        },
        {
          "internalType": "string",
          "name": "ownerLocation",
          "type": "string"
        },
        {
          "internalType": "string",
          "name": "itemName",
          "type": "string"
        },
        {
          "internalType": "uint256",
          "name": "itemid",
          "type": "uint256"
        },
        {
          "internalType": "bool",
          "name": "isRetail",
          "type": "bool"
        },
        {
          "internalType": "uint256",
          "name": "cost",
          "type": "uint256"
        }
      ],
      "stateMutability": "view",
      "type": "function"
    },
    {
      "inputs": [
        {
          "internalType": "uint256",
          "name": "",
          "type": "uint256"
        }
      ],
      "name": "userIdtoAddress",
      "outputs": [
        {
          "internalType": "address",
          "name": "",
          "type": "address"
        }
      ],
      "stateMutability": "view",
      "type": "function"
    },
    {
      "inputs": [
        {
          "internalType": "uint256",
          "name": "_userId",
          "type": "uint256"
        },
        {
          "internalType": "string",
          "name": "_userName",
          "type": "string"
        },
        {
          "internalType": "uint256",
          "name": "_itemId",
          "type": "uint256"
        },
        {
          "internalType": "string",
          "name": "_itemName",
          "type": "string"
        },
        {
          "internalType": "string",
          "name": "_location",
          "type": "string"
        },
        {
          "internalType": "bool",
          "name": "_isRetail",
          "type": "bool"
        },
        {
          "internalType": "uint256",
          "name": "_cost",
          "type": "uint256"
        }
      ],
      "name": "addStartingNode",
      "outputs": [
        {
          "internalType": "uint256",
          "name": "",
          "type": "uint256"
        }
      ],
      "stateMutability": "nonpayable",
      "type": "function"
    },
    {
      "inputs": [
        {
          "internalType": "uint256",
          "name": "_userId",
          "type": "uint256"
        },
        {
          "internalType": "string",
          "name": "_userName",
          "type": "string"
        },
        {
          "internalType": "string",
          "name": "_location",
          "type": "string"
        },
        {
          "internalType": "uint256",
          "name": "_orderID",
          "type": "uint256"
        },
        {
          "internalType": "uint256",
          "name": "_itemId",
          "type": "uint256"
        },
        {
          "internalType": "string",
          "name": "_itemName",
          "type": "string"
        },
        {
          "internalType": "bool",
          "name": "_isRetail",
          "type": "bool"
        },
        {
          "internalType": "uint256",
          "name": "_cost",
          "type": "uint256"
        }
      ],
      "name": "addTransaction",
      "outputs": [],
      "stateMutability": "payable",
      "type": "function"
    },
    {
      "inputs": [
        {
          "internalType": "uint256",
          "name": "_buyerId",
          "type": "uint256"
        },
        {
          "internalType": "uint256",
          "name": "_itemId",
          "type": "uint256"
        },
        {
          "internalType": "string",
          "name": "_itemName",
          "type": "string"
        },
        {
          "internalType": "uint256",
          "name": "_sellerId",
          "type": "uint256"
        }
      ],
      "name": "orderRequest",
      "outputs": [
        {
          "internalType": "uint256",
          "name": "",
          "type": "uint256"
        }
      ],
      "stateMutability": "nonpayable",
      "type": "function"
    },
    {
      "inputs": [
        {
          "internalType": "uint256",
          "name": "_userId",
          "type": "uint256"
        },
        {
          "internalType": "uint256",
          "name": "_orderID",
          "type": "uint256"
        }
      ],
      "name": "orderShipping",
      "outputs": [],
      "stateMutability": "nonpayable",
      "type": "function"
    },
    {
      "inputs": [
        {
          "internalType": "uint256",
          "name": "_node",
          "type": "uint256"
        }
      ],
      "name": "getPrecedents",
      "outputs": [
        {
          "internalType": "string[]",
          "name": "",
          "type": "string[]"
        },
        {
          "internalType": "string[]",
          "name": "",
          "type": "string[]"
        },
        {
          "internalType": "string[]",
          "name": "",
          "type": "string[]"
        }
      ],
      "stateMutability": "view",
      "type": "function"
    }
  ],
  "bytecode": "0x608060405260016006556001600c556001600e5534801561001f57600080fd5b50614c568061002f6000396000f3fe6080604052600436106100f9576000357c0100000000000000000000000000000000000000000000000000000000900480634c3229f61161009c578063b2c6483011610076578063b2c6483014610334578063c08bb89014610373578063d57af4211461039c578063f8952390146103d9576100f9565b80634c3229f61461029e5780636ca02a37146102ba5780636d442471146102f7576100f9565b80631ca220d1116100d85780631ca220d1146101aa57806320d2db1c146101e75780632a989fac146102245780633ab7d09a14610261576100f9565b8062ce8e3e146100fe578063102804c2146101295780631c53c28014610166575b600080fd5b34801561010a57600080fd5b50610113610418565b6040516101209190613a58565b60405180910390f35b34801561013557600080fd5b50610150600480360381019061014b9190613bef565b610569565b60405161015d9190613c5a565b60405180910390f35b34801561017257600080fd5b5061018d60048036038101906101889190613ca1565b6107cf565b6040516101a1989796959493929190613d42565b60405180910390f35b3480156101b657600080fd5b506101d160048036038101906101cc9190613dd5565b6109dc565b6040516101de9190613c5a565b60405180910390f35b3480156101f357600080fd5b5061020e60048036038101906102099190613ca1565b610e17565b60405161021b9190613f7d565b60405180910390f35b34801561023057600080fd5b5061024b60048036038101906102469190613f9f565b610f39565b604051610258919061401c565b60405180910390f35b34801561026d57600080fd5b5061028860048036038101906102839190613ca1565b611084565b60405161029591906141e2565b60405180910390f35b6102b860048036038101906102b39190614230565b611345565b005b3480156102c657600080fd5b506102e160048036038101906102dc919061433a565b611652565b6040516102ee9190613c5a565b60405180910390f35b34801561030357600080fd5b5061031e60048036038101906103199190613ca1565b611ab9565b60405161032b9190614568565b60405180910390f35b34801561034057600080fd5b5061035b60048036038101906103569190613ca1565b611bf6565b60405161036a9392919061464c565b60405180910390f35b34801561037f57600080fd5b5061039a60048036038101906103959190614698565b611fc3565b005b3480156103a857600080fd5b506103c360048036038101906103be9190613ca1565b6121cc565b6040516103d091906146d8565b60405180910390f35b3480156103e557600080fd5b5061040060048036038101906103fb9190613ca1565b6121ff565b60405161040f939291906146f3565b60405180910390f35b60606007805480602002602001604051908101604052809291908181526020016000905b828210156105605783829060005260206000209060030201604051806060016040529081600082015481526020016001820180546104799061476e565b80601f01602080910402602001604051908101604052809291908181526020018280546104a59061476e565b80156104f25780601f106104c7576101008083540402835291602001916104f2565b820191906000526020600020905b8154815290600101906020018083116104d557829003601f168201915b505050505081526020016002820160009054906101000a900473ffffffffffffffffffffffffffffffffffffffff1673ffffffffffffffffffffffffffffffffffffffff1673ffffffffffffffffffffffffffffffffffffffff16815250508152602001906001019061043c565b50505050905090565b60008060065490506007604051806060016040528060065481526020018681526020018573ffffffffffffffffffffffffffffffffffffffff1681525090806001815401808255809150506001900390600052602060002090600302016000909190919091506000820151816000015560208201518160010190805190602001906105f592919061365f565b5060408201518160020160006101000a81548173ffffffffffffffffffffffffffffffffffffffff021916908373ffffffffffffffffffffffffffffffffffffffff16021790555050508260086000600654815260200190815260200160002060006101000a81548173ffffffffffffffffffffffffffffffffffffffff021916908373ffffffffffffffffffffffffffffffffffffffff160217905550604051806060016040528060065481526020018581526020018473ffffffffffffffffffffffffffffffffffffffff16815250600960008573ffffffffffffffffffffffffffffffffffffffff1673ffffffffffffffffffffffffffffffffffffffff16815260200190815260200160002060008201518160000155602082015181600101908051906020019061072b92919061365f565b5060408201518160020160006101000a81548173ffffffffffffffffffffffffffffffffffffffff021916908373ffffffffffffffffffffffffffffffffffffffff16021790555090505060066000815480929190610789906147cf565b91905055507f27412bb19840b11057dee7c7019767312555c4497d8d4c2383fa6b7791bf014b816040516107bd9190613c5a565b60405180910390a18091505092915050565b600d6020528060005260406000206000915090508060000160009054906101000a900473ffffffffffffffffffffffffffffffffffffffff169080600101549080600201805461081e9061476e565b80601f016020809104026020016040519081016040528092919081815260200182805461084a9061476e565b80156108975780601f1061086c57610100808354040283529160200191610897565b820191906000526020600020905b81548152906001019060200180831161087a57829003601f168201915b5050505050908060030180546108ac9061476e565b80601f01602080910402602001604051908101604052809291908181526020018280546108d89061476e565b80156109255780601f106108fa57610100808354040283529160200191610925565b820191906000526020600020905b81548152906001019060200180831161090857829003601f168201915b50505050509080600401805461093a9061476e565b80601f01602080910402602001604051908101604052809291908181526020018280546109669061476e565b80156109b35780601f10610988576101008083540402835291602001916109b3565b820191906000526020600020905b81548152906001019060200180831161099657829003601f168201915b5050505050908060050154908060070160009054906101000a900460ff16908060080154905088565b6000843373ffffffffffffffffffffffffffffffffffffffff166008600083815260200190815260200160002060009054906101000a900473ffffffffffffffffffffffffffffffffffffffff1673ffffffffffffffffffffffffffffffffffffffff1614610a80576040517f08c379a0000000000000000000000000000000000000000000000000000000008152600401610a7790614864565b60405180910390fd5b600060106000878152602001908152602001600020600085815260200190815260200160002054905060006008600089815260200190815260200160002060009054906101000a900473ffffffffffffffffffffffffffffffffffffffff1690503373ffffffffffffffffffffffffffffffffffffffff168173ffffffffffffffffffffffffffffffffffffffff1614610b4f576040517f08c379a0000000000000000000000000000000000000000000000000000000008152600401610b46906148d0565b60405180910390fd5b604051806080016040528089815260200186815260200188815260200183815250600a6000600c54815260200190815260200160002060008201518160000155602082015181600101556040820151816002015560608201518160030155905050600260008981526020019081526020016000206040518060800160405280898152602001878152602001888152602001600c54815250908060018154018082558091505060019003906000526020600020906004020160009091909190915060008201518160000155602082015181600101556040820151816002019080519060200190610c3f92919061365f565b506060820151816003015550506001600260008a815260200190815260200160002080549050610c6f91906148f0565b600560008a81526020019081526020016000206000600c54815260200190815260200160002081905550600160008681526020019081526020016000206040518060a001604052808981526020018a8152602001888152602001600c54815260200160001515815250908060018154018082558091505060019003906000526020600020906005020160009091909190915060008201518160000155602082015181600101556040820151816002019080519060200190610d3192919061365f565b506060820151816003015560808201518160040160006101000a81548160ff0219169083151502179055505050600180600087815260200190815260200160002080549050610d8091906148f0565b600460008781526020019081526020016000206000600c54815260200190815260200160002081905550610db4858861271f565b6001600c6000828254610dc79190614924565b925050819055507f049e46522fe5cc4dba742ea6352c3257c4049cb36eaf3d60a76326cf3ab977e2600c54604051610dff9190613c5a565b60405180910390a1600c549350505050949350505050565b606060026000838152602001908152602001600020805480602002602001604051908101604052809291908181526020016000905b82821015610f2e57838290600052602060002090600402016040518060800160405290816000820154815260200160018201548152602001600282018054610e939061476e565b80601f0160208091040260200160405190810160405280929190818152602001828054610ebf9061476e565b8015610f0c5780601f10610ee157610100808354040283529160200191610f0c565b820191906000526020600020905b815481529060010190602001808311610eef57829003601f168201915b5050505050815260200160038201548152505081526020019060010190610e4c565b505050509050919050565b610f416136e5565b600960008373ffffffffffffffffffffffffffffffffffffffff1673ffffffffffffffffffffffffffffffffffffffff16815260200190815260200160002060405180606001604052908160008201548152602001600182018054610fa59061476e565b80601f0160208091040260200160405190810160405280929190818152602001828054610fd19061476e565b801561101e5780601f10610ff35761010080835404028352916020019161101e565b820191906000526020600020905b81548152906001019060200180831161100157829003601f168201915b505050505081526020016002820160009054906101000a900473ffffffffffffffffffffffffffffffffffffffff1673ffffffffffffffffffffffffffffffffffffffff1673ffffffffffffffffffffffffffffffffffffffff16815250509050919050565b6060600080838152602001908152602001600020805480602002602001604051908101604052809291908181526020016000905b8282101561133a5783829060005260206000209060090201604051806101200160405290816000820160009054906101000a900473ffffffffffffffffffffffffffffffffffffffff1673ffffffffffffffffffffffffffffffffffffffff1673ffffffffffffffffffffffffffffffffffffffff1681526020016001820154815260200160028201805461114c9061476e565b80601f01602080910402602001604051908101604052809291908181526020018280546111789061476e565b80156111c55780601f1061119a576101008083540402835291602001916111c5565b820191906000526020600020905b8154815290600101906020018083116111a857829003601f168201915b5050505050815260200160038201548152602001600482015481526020016005820180546111f29061476e565b80601f016020809104026020016040519081016040528092919081815260200182805461121e9061476e565b801561126b5780601f106112405761010080835404028352916020019161126b565b820191906000526020600020905b81548152906001019060200180831161124e57829003601f168201915b50505050508152602001600682015481526020016007820160009054906101000a900460ff161515151581526020016008820180546112a99061476e565b80601f01602080910402602001604051908101604052809291908181526020018280546112d59061476e565b80156113225780601f106112f757610100808354040283529160200191611322565b820191906000526020600020905b81548152906001019060200180831161130557829003601f168201915b505050505081525050815260200190600101906110b8565b505050509050919050565b873373ffffffffffffffffffffffffffffffffffffffff166008600083815260200190815260200160002060009054906101000a900473ffffffffffffffffffffffffffffffffffffffff1673ffffffffffffffffffffffffffffffffffffffff16146113e7576040517f08c379a00000000000000000000000000000000000000000000000000000000081526004016113de90614864565b60405180910390fd5b6000600a60008881526020019081526020016000206003015490506000811415611446576040517f08c379a000000000000000000000000000000000000000000000000000000000815260040161143d90614a12565b60405180910390fd5b3373ffffffffffffffffffffffffffffffffffffffff16600860008c815260200190815260200160002060009054906101000a900473ffffffffffffffffffffffffffffffffffffffff1673ffffffffffffffffffffffffffffffffffffffff16146114e7576040517f08c379a00000000000000000000000000000000000000000000000000000000081526004016114de90614a7e565b60405180910390fd5b611506600a600089815260200190815260200160002060030154612b42565b611545576040517f08c379a000000000000000000000000000000000000000000000000000000000815260040161153c90614b36565b60405180910390fd5b60011515600b600089815260200190815260200160002060009054906101000a900460ff161515146115ac576040517f08c379a00000000000000000000000000000000000000000000000000000000081526004016115a390614ba2565b60405180910390fd5b600d60008281526020019081526020016000206008015434146115ce57600080fd5b6115df818b8b8b8b8b8b8b8b612b77565b6000600d60008381526020019081526020016000206001015490506116048b89612f2f565b61160e81896131b4565b7f5d2590a7f8bcb460fd3f8287ddfbb3932238bcaa516e747246cc7476501405eb8860405161163d9190613c5a565b60405180910390a15050505050505050505050565b6000873373ffffffffffffffffffffffffffffffffffffffff166008600083815260200190815260200160002060009054906101000a900473ffffffffffffffffffffffffffffffffffffffff1673ffffffffffffffffffffffffffffffffffffffff16146116f6576040517f08c379a00000000000000000000000000000000000000000000000000000000081526004016116ed90614864565b60405180910390fd5b60606000600e5490506040518061012001604052803373ffffffffffffffffffffffffffffffffffffffff1681526020018c81526020018b81526020018881526020018981526020018a8152602001838152602001871515815260200186815250600d600083815260200190815260200160002060008201518160000160006101000a81548173ffffffffffffffffffffffffffffffffffffffff021916908373ffffffffffffffffffffffffffffffffffffffff1602179055506020820151816001015560408201518160020190805190602001906117d792919061365f565b5060608201518160030190805190602001906117f492919061365f565b50608082015181600401908051906020019061181192919061365f565b5060a0820151816005015560c082015181600601908051906020019061183892919061371c565b5060e08201518160070160006101000a81548160ff021916908315150217905550610100820151816008015590505080600f60008b81526020019081526020016000208190555080601060008b815260200190815260200160002060008d8152602001908152602001600020819055506000808c8152602001908152602001600020604051806101200160405280600860008f815260200190815260200160002060009054906101000a900473ffffffffffffffffffffffffffffffffffffffff1673ffffffffffffffffffffffffffffffffffffffff1681526020018d81526020018c81526020018381526020018b81526020018a8152602001878152602001881515815260200189815250908060018154018082558091505060019003906000526020600020906009020160009091909190915060008201518160000160006101000a81548173ffffffffffffffffffffffffffffffffffffffff021916908373ffffffffffffffffffffffffffffffffffffffff1602179055506020820151816001015560408201518160020190805190602001906119db92919061365f565b50606082015181600301556080820151816004015560a0820151816005019080519060200190611a0c92919061365f565b5060c0820151816006015560e08201518160070160006101000a81548160ff021916908315150217905550610100820151816008019080519060200190611a5492919061365f565b5050506001600e6000828254611a6a9190614924565b925050819055507fd64a67730e00320b299a9b010dc8dd976eda05b8640b6e9ce9204da34fbe0c0c81604051611aa09190613c5a565b60405180910390a1809350505050979650505050505050565b606060016000838152602001908152602001600020805480602002602001604051908101604052809291908181526020016000905b82821015611beb57838290600052602060002090600502016040518060a00160405290816000820154815260200160018201548152602001600282018054611b359061476e565b80601f0160208091040260200160405190810160405280929190818152602001828054611b619061476e565b8015611bae5780601f10611b8357610100808354040283529160200191611bae565b820191906000526020600020905b815481529060010190602001808311611b9157829003601f168201915b50505050508152602001600382015481526020016004820160009054906101000a900460ff16151515158152505081526020019060010190611aee565b505050509050919050565b60608060606000600d600086815260200190815260200160002060060180549050905060008167ffffffffffffffff811115611c3557611c34613a98565b5b604051908082528060200260200182016040528015611c6857816020015b6060815260200190600190039081611c535790505b50905060008267ffffffffffffffff811115611c8757611c86613a98565b5b604051908082528060200260200182016040528015611cba57816020015b6060815260200190600190039081611ca55790505b50905060008367ffffffffffffffff811115611cd957611cd8613a98565b5b604051908082528060200260200182016040528015611d0c57816020015b6060815260200190600190039081611cf75790505b50905060005b84811015611fae576000600d60008b81526020019081526020016000206006018281548110611d4457611d43614bc2565b5b906000526020600020015490506000600d60008c81526020019081526020016000206002018054611d749061476e565b80601f0160208091040260200160405190810160405280929190818152602001828054611da09061476e565b8015611ded5780601f10611dc257610100808354040283529160200191611ded565b820191906000526020600020905b815481529060010190602001808311611dd057829003601f168201915b505050505090506000600d60008d81526020019081526020016000206003018054611e179061476e565b80601f0160208091040260200160405190810160405280929190818152602001828054611e439061476e565b8015611e905780601f10611e6557610100808354040283529160200191611e90565b820191906000526020600020905b815481529060010190602001808311611e7357829003601f168201915b505050505090506000600d60008e81526020019081526020016000206004018054611eba9061476e565b80601f0160208091040260200160405190810160405280929190818152602001828054611ee69061476e565b8015611f335780601f10611f0857610100808354040283529160200191611f33565b820191906000526020600020905b815481529060010190602001808311611f1657829003601f168201915b5050505050905082888681518110611f4e57611f4d614bc2565b5b602002602001018190525081878681518110611f6d57611f6c614bc2565b5b602002602001018190525080868681518110611f8c57611f8b614bc2565b5b6020026020010181905250505050508080611fa6906147cf565b915050611d12565b50828282965096509650505050509193909250565b813373ffffffffffffffffffffffffffffffffffffffff166008600083815260200190815260200160002060009054906101000a900473ffffffffffffffffffffffffffffffffffffffff1673ffffffffffffffffffffffffffffffffffffffff1614612065576040517f08c379a000000000000000000000000000000000000000000000000000000000815260040161205c90614864565b60405180910390fd5b6000600a60008481526020019081526020016000206001015490503373ffffffffffffffffffffffffffffffffffffffff166008600083815260200190815260200160002060009054906101000a900473ffffffffffffffffffffffffffffffffffffffff1673ffffffffffffffffffffffffffffffffffffffff16146120eb57600080fd5b6001600b600085815260200190815260200160002060006101000a81548160ff02191690831515021790555060006004600083815260200190815260200160002060008581526020019081526020016000205490506001806000848152602001908152602001600020828154811061216657612165614bc2565b5b906000526020600020906005020160040160006101000a81548160ff0219169083151502179055507f489f943aaef48c5a369b8157208390d06b8a5907566dc3c4baed23fe7a649206846040516121bd9190613c5a565b60405180910390a15050505050565b60086020528060005260406000206000915054906101000a900473ffffffffffffffffffffffffffffffffffffffff1681565b6060806060600080858152602001908152602001600020600160008681526020019081526020016000206002600087815260200190815260200160002082805480602002602001604051908101604052809291908181526020016000905b828210156124df5783829060005260206000209060090201604051806101200160405290816000820160009054906101000a900473ffffffffffffffffffffffffffffffffffffffff1673ffffffffffffffffffffffffffffffffffffffff1673ffffffffffffffffffffffffffffffffffffffff168152602001600182015481526020016002820180546122f19061476e565b80601f016020809104026020016040519081016040528092919081815260200182805461231d9061476e565b801561236a5780601f1061233f5761010080835404028352916020019161236a565b820191906000526020600020905b81548152906001019060200180831161234d57829003601f168201915b5050505050815260200160038201548152602001600482015481526020016005820180546123979061476e565b80601f01602080910402602001604051908101604052809291908181526020018280546123c39061476e565b80156124105780601f106123e557610100808354040283529160200191612410565b820191906000526020600020905b8154815290600101906020018083116123f357829003601f168201915b50505050508152602001600682015481526020016007820160009054906101000a900460ff1615151515815260200160088201805461244e9061476e565b80601f016020809104026020016040519081016040528092919081815260200182805461247a9061476e565b80156124c75780601f1061249c576101008083540402835291602001916124c7565b820191906000526020600020905b8154815290600101906020018083116124aa57829003601f168201915b5050505050815250508152602001906001019061225d565b50505050925081805480602002602001604051908101604052809291908181526020016000905b8282101561260357838290600052602060002090600502016040518060a0016040529081600082015481526020016001820154815260200160028201805461254d9061476e565b80601f01602080910402602001604051908101604052809291908181526020018280546125799061476e565b80156125c65780601f1061259b576101008083540402835291602001916125c6565b820191906000526020600020905b8154815290600101906020018083116125a957829003601f168201915b50505050508152602001600382015481526020016004820160009054906101000a900460ff16151515158152505081526020019060010190612506565b50505050915080805480602002602001604051908101604052809291908181526020016000905b8282101561270c578382906000526020600020906004020160405180608001604052908160008201548152602001600182015481526020016002820180546126719061476e565b80601f016020809104026020016040519081016040528092919081815260200182805461269d9061476e565b80156126ea5780601f106126bf576101008083540402835291602001916126ea565b820191906000526020600020905b8154815290600101906020018083116126cd57829003601f168201915b505050505081526020016003820154815250508152602001906001019061262a565b5050505090509250925092509193909250565b600080600084815260200190815260200160002080549050905060018114156128315760008084815260200190815260200160002060008154811061276757612766614bc2565b5b9060005260206000209060090201600080820160006101000a81549073ffffffffffffffffffffffffffffffffffffffff021916905560018201600090556002820160006127b59190613769565b600382016000905560048201600090556005820160006127d59190613769565b60068201600090556007820160006101000a81549060ff02191690556008820160006128019190613769565b50506003600084815260200190815260200160002060008381526020019081526020016000206000905550612b3e565b600060036000858152602001908152602001600020600084815260200190815260200160002054905060008085815260200190815260200160002060018361287991906148f0565b8154811061288a57612889614bc2565b5b906000526020600020906009020160008086815260200190815260200160002082815481106128bc576128bb614bc2565b5b90600052602060002090600902016000820160009054906101000a900473ffffffffffffffffffffffffffffffffffffffff168160000160006101000a81548173ffffffffffffffffffffffffffffffffffffffff021916908373ffffffffffffffffffffffffffffffffffffffff16021790555060018201548160010155600282018160020190805461294f9061476e565b61295a9291906137a9565b50600382015481600301556004820154816004015560058201816005019080546129839061476e565b61298e9291906137a9565b50600682015481600601556007820160009054906101000a900460ff168160070160006101000a81548160ff02191690831515021790555060088201816008019080546129da9061476e565b6129e59291906137a9565b50905050600080858152602001908152602001600020805480612a0b57612a0a614bf1565b5b6001900381819060005260206000209060090201600080820160006101000a81549073ffffffffffffffffffffffffffffffffffffffff02191690556001820160009055600282016000612a5f9190613769565b60038201600090556004820160009055600582016000612a7f9190613769565b60068201600090556007820160006101000a81549060ff0219169055600882016000612aab9190613769565b505090556003600085815260200190815260200160002060008481526020019081526020016000206000905560008060008681526020019081526020016000208281548110612afd57612afc614bc2565b5b906000526020600020906009020160040154905081600360008781526020019081526020016000206000838152602001908152602001600020819055505050505b5050565b600081600f6000600d600086815260200190815260200160002060050154815260200190815260200160002054149050919050565b60006010600086815260200190815260200160002060008a8152602001908152602001600020541415612e5b576000600167ffffffffffffffff811115612bc157612bc0613a98565b5b604051908082528060200260200182016040528015612bef5781602001602082028036833780820191505090505b5090508981600081518110612c0757612c06614bc2565b5b602002602001018181525050604051806101200160405280600860008c815260200190815260200160002060009054906101000a900473ffffffffffffffffffffffffffffffffffffffff1673ffffffffffffffffffffffffffffffffffffffff1681526020018a8152602001898152602001888152602001858152602001868152602001828152602001841515815260200183815250600d6000600e54815260200190815260200160002060008201518160000160006101000a81548173ffffffffffffffffffffffffffffffffffffffff021916908373ffffffffffffffffffffffffffffffffffffffff160217905550602082015181600101556040820151816002019080519060200190612d2092919061365f565b506060820151816003019080519060200190612d3d92919061365f565b506080820151816004019080519060200190612d5a92919061365f565b5060a0820151816005015560c0820151816006019080519060200190612d8192919061371c565b5060e08201518160070160006101000a81548160ff0219169083151502179055506101008201518160080155905050600e546010600087815260200190815260200160002060008b815260200190815260200160002081905550600e54600f600087815260200190815260200160002081905550612e3b600e54600860008c815260200190815260200160002060009054906101000a900473ffffffffffffffffffffffffffffffffffffffff168b8b898989898f61348e565b6001600e6000828254612e4e9190614924565b9250508190555050612f24565b60006010600086815260200190815260200160002060008a8152602001908152602001600020549050600d60008281526020019081526020016000206006018a908060018154018082558091505060019003906000526020600020016000909190919091505581600d600083815260200190815260200160002060080181905550612f2281600860008c815260200190815260200160002060009054906101000a900473ffffffffffffffffffffffffffffffffffffffff166006548b898989898f61348e565b505b505050505050505050565b6000600260008481526020019081526020016000208054905090506001811415612fe05760026000848152602001908152602001600020600081548110612f7957612f78614bc2565b5b90600052602060002090600402016000808201600090556001820160009055600282016000612fa89190613769565b6003820160009055505060056000848152602001908152602001600020600083815260200190815260200160002060009055506131b0565b60006005600085815260200190815260200160002060008481526020019081526020016000205490506002600085815260200190815260200160002060018361302991906148f0565b8154811061303a57613039614bc2565b5b906000526020600020906004020160026000868152602001908152602001600020828154811061306d5761306c614bc2565b5b9060005260206000209060040201600082015481600001556001820154816001015560028201816002019080546130a39061476e565b6130ae9291906137a9565b5060038201548160030155905050600260008581526020019081526020016000208054806130df576130de614bf1565b5b600190038181906000526020600020906004020160008082016000905560018201600090556002820160006131149190613769565b60038201600090555050905560056000858152602001908152602001600020600084815260200190815260200160002060009055600060026000868152602001908152602001600020828154811061316f5761316e614bc2565b5b906000526020600020906004020160030154905081600560008781526020019081526020016000206000838152602001908152602001600020819055505050505b5050565b600060016000848152602001908152602001600020805490509050600181141561327957600160008481526020019081526020016000206000815481106131fe576131fd614bc2565b5b9060005260206000209060050201600080820160009055600182016000905560028201600061322d9190613769565b60038201600090556004820160006101000a81549060ff02191690555050600460008481526020019081526020016000206000808152602001908152602001600020600090555061348a565b6000600460008581526020019081526020016000206000848152602001908152602001600020549050600160008581526020019081526020016000206001836132c291906148f0565b815481106132d3576132d2614bc2565b5b906000526020600020906005020160016000868152602001908152602001600020828154811061330657613305614bc2565b5b90600052602060002090600502016000820154816000015560018201548160010155600282018160020190805461333c9061476e565b6133479291906137a9565b50600382015481600301556004820160009054906101000a900460ff168160040160006101000a81548160ff021916908315150217905550905050600160008581526020019081526020016000208054806133a5576133a4614bf1565b5b600190038181906000526020600020906005020160008082016000905560018201600090556002820160006133da9190613769565b60038201600090556004820160006101000a81549060ff02191690555050905560046000858152602001908152602001600020600084815260200190815260200160002060009055600060016000868152602001908152602001600020828154811061344957613448614bc2565b5b906000526020600020906005020160030154905081600460008781526020019081526020016000206000838152602001908152602001600020819055505050505b5050565b6000808881526020019081526020016000206040518061012001604052808a73ffffffffffffffffffffffffffffffffffffffff1681526020018981526020018881526020018b8152602001878152602001868152602001848152602001851515815260200183815250908060018154018082558091505060019003906000526020600020906009020160009091909190915060008201518160000160006101000a81548173ffffffffffffffffffffffffffffffffffffffff021916908373ffffffffffffffffffffffffffffffffffffffff16021790555060208201518160010155604082015181600201908051906020019061358e92919061365f565b50606082015181600301556080820151816004015560a08201518160050190805190602001906135bf92919061365f565b5060c0820151816006015560e08201518160070160006101000a81548160ff02191690831515021790555061010082015181600801908051906020019061360792919061365f565b50505060016000808981526020019081526020016000208054905061362c91906148f0565b60036000898152602001908152602001600020600087815260200190815260200160002081905550505050505050505050565b82805461366b9061476e565b90600052602060002090601f01602090048101928261368d57600085556136d4565b82601f106136a657805160ff19168380011785556136d4565b828001600101855582156136d4579182015b828111156136d35782518255916020019190600101906136b8565b5b5090506136e19190613836565b5090565b60405180606001604052806000815260200160608152602001600073ffffffffffffffffffffffffffffffffffffffff1681525090565b828054828255906000526020600020908101928215613758579160200282015b8281111561375757825182559160200191906001019061373c565b5b5090506137659190613836565b5090565b5080546137759061476e565b6000825580601f1061378757506137a6565b601f0160209004906000526020600020908101906137a59190613836565b5b50565b8280546137b59061476e565b90600052602060002090601f0160209004810192826137d75760008555613825565b82601f106137e85780548555613825565b8280016001018555821561382557600052602060002091601f016020900482015b82811115613824578254825591600101919060010190613809565b5b5090506138329190613836565b5090565b5b8082111561384f576000816000905550600101613837565b5090565b600081519050919050565b600082825260208201905092915050565b6000819050602082019050919050565b6000819050919050565b6138928161387f565b82525050565b600081519050919050565b600082825260208201905092915050565b60005b838110156138d25780820151818401526020810190506138b7565b838111156138e1576000848401525b50505050565b6000601f19601f8301169050919050565b600061390382613898565b61390d81856138a3565b935061391d8185602086016138b4565b613926816138e7565b840191505092915050565b600073ffffffffffffffffffffffffffffffffffffffff82169050919050565b600061395c82613931565b9050919050565b61396c81613951565b82525050565b600060608301600083015161398a6000860182613889565b50602083015184820360208601526139a282826138f8565b91505060408301516139b76040860182613963565b508091505092915050565b60006139ce8383613972565b905092915050565b6000602082019050919050565b60006139ee82613853565b6139f8818561385e565b935083602082028501613a0a8561386f565b8060005b85811015613a465784840389528151613a2785826139c2565b9450613a32836139d6565b925060208a01995050600181019050613a0e565b50829750879550505050505092915050565b60006020820190508181036000830152613a7281846139e3565b905092915050565b6000604051905090565b600080fd5b600080fd5b600080fd5b600080fd5b7f4e487b7100000000000000000000000000000000000000000000000000000000600052604160045260246000fd5b613ad0826138e7565b810181811067ffffffffffffffff82111715613aef57613aee613a98565b5b80604052505050565b6000613b02613a7a565b9050613b0e8282613ac7565b919050565b600067ffffffffffffffff821115613b2e57613b2d613a98565b5b613b37826138e7565b9050602081019050919050565b82818337600083830152505050565b6000613b66613b6184613b13565b613af8565b905082815260208101848484011115613b8257613b81613a93565b5b613b8d848285613b44565b509392505050565b600082601f830112613baa57613ba9613a8e565b5b8135613bba848260208601613b53565b91505092915050565b613bcc81613951565b8114613bd757600080fd5b50565b600081359050613be981613bc3565b92915050565b60008060408385031215613c0657613c05613a84565b5b600083013567ffffffffffffffff811115613c2457613c23613a89565b5b613c3085828601613b95565b9250506020613c4185828601613bda565b9150509250929050565b613c548161387f565b82525050565b6000602082019050613c6f6000830184613c4b565b92915050565b613c7e8161387f565b8114613c8957600080fd5b50565b600081359050613c9b81613c75565b92915050565b600060208284031215613cb757613cb6613a84565b5b6000613cc584828501613c8c565b91505092915050565b613cd781613951565b82525050565b600082825260208201905092915050565b6000613cf982613898565b613d038185613cdd565b9350613d138185602086016138b4565b613d1c816138e7565b840191505092915050565b60008115159050919050565b613d3c81613d27565b82525050565b600061010082019050613d58600083018b613cce565b613d65602083018a613c4b565b8181036040830152613d778189613cee565b90508181036060830152613d8b8188613cee565b90508181036080830152613d9f8187613cee565b9050613dae60a0830186613c4b565b613dbb60c0830185613d33565b613dc860e0830184613c4b565b9998505050505050505050565b60008060008060808587031215613def57613dee613a84565b5b6000613dfd87828801613c8c565b9450506020613e0e87828801613c8c565b935050604085013567ffffffffffffffff811115613e2f57613e2e613a89565b5b613e3b87828801613b95565b9250506060613e4c87828801613c8c565b91505092959194509250565b600081519050919050565b600082825260208201905092915050565b6000819050602082019050919050565b6000608083016000830151613e9c6000860182613889565b506020830151613eaf6020860182613889565b5060408301518482036040860152613ec782826138f8565b9150506060830151613edc6060860182613889565b508091505092915050565b6000613ef38383613e84565b905092915050565b6000602082019050919050565b6000613f1382613e58565b613f1d8185613e63565b935083602082028501613f2f85613e74565b8060005b85811015613f6b5784840389528151613f4c8582613ee7565b9450613f5783613efb565b925060208a01995050600181019050613f33565b50829750879550505050505092915050565b60006020820190508181036000830152613f978184613f08565b905092915050565b600060208284031215613fb557613fb4613a84565b5b6000613fc384828501613bda565b91505092915050565b6000606083016000830151613fe46000860182613889565b5060208301518482036020860152613ffc82826138f8565b91505060408301516140116040860182613963565b508091505092915050565b600060208201905081810360008301526140368184613fcc565b905092915050565b600081519050919050565b600082825260208201905092915050565b6000819050602082019050919050565b61407381613d27565b82525050565b6000610120830160008301516140926000860182613963565b5060208301516140a56020860182613889565b50604083015184820360408601526140bd82826138f8565b91505060608301516140d26060860182613889565b5060808301516140e56080860182613889565b5060a083015184820360a08601526140fd82826138f8565b91505060c083015161411260c0860182613889565b5060e083015161412560e086018261406a565b5061010083015184820361010086015261413f82826138f8565b9150508091505092915050565b60006141588383614079565b905092915050565b6000602082019050919050565b60006141788261403e565b6141828185614049565b9350836020820285016141948561405a565b8060005b858110156141d057848403895281516141b1858261414c565b94506141bc83614160565b925060208a01995050600181019050614198565b50829750879550505050505092915050565b600060208201905081810360008301526141fc818461416d565b905092915050565b61420d81613d27565b811461421857600080fd5b50565b60008135905061422a81614204565b92915050565b600080600080600080600080610100898b03121561425157614250613a84565b5b600061425f8b828c01613c8c565b985050602089013567ffffffffffffffff8111156142805761427f613a89565b5b61428c8b828c01613b95565b975050604089013567ffffffffffffffff8111156142ad576142ac613a89565b5b6142b98b828c01613b95565b96505060606142ca8b828c01613c8c565b95505060806142db8b828c01613c8c565b94505060a089013567ffffffffffffffff8111156142fc576142fb613a89565b5b6143088b828c01613b95565b93505060c06143198b828c0161421b565b92505060e061432a8b828c01613c8c565b9150509295985092959890939650565b600080600080600080600060e0888a03121561435957614358613a84565b5b60006143678a828b01613c8c565b975050602088013567ffffffffffffffff81111561438857614387613a89565b5b6143948a828b01613b95565b96505060406143a58a828b01613c8c565b955050606088013567ffffffffffffffff8111156143c6576143c5613a89565b5b6143d28a828b01613b95565b945050608088013567ffffffffffffffff8111156143f3576143f2613a89565b5b6143ff8a828b01613b95565b93505060a06144108a828b0161421b565b92505060c06144218a828b01613c8c565b91505092959891949750929550565b600081519050919050565b600082825260208201905092915050565b6000819050602082019050919050565b600060a0830160008301516144746000860182613889565b5060208301516144876020860182613889565b506040830151848203604086015261449f82826138f8565b91505060608301516144b46060860182613889565b5060808301516144c7608086018261406a565b508091505092915050565b60006144de838361445c565b905092915050565b6000602082019050919050565b60006144fe82614430565b614508818561443b565b93508360208202850161451a8561444c565b8060005b85811015614556578484038952815161453785826144d2565b9450614542836144e6565b925060208a0199505060018101905061451e565b50829750879550505050505092915050565b6000602082019050818103600083015261458281846144f3565b905092915050565b600081519050919050565b600082825260208201905092915050565b6000819050602082019050919050565b60006145c283836138f8565b905092915050565b6000602082019050919050565b60006145e28261458a565b6145ec8185614595565b9350836020820285016145fe856145a6565b8060005b8581101561463a578484038952815161461b85826145b6565b9450614626836145ca565b925060208a01995050600181019050614602565b50829750879550505050505092915050565b6000606082019050818103600083015261466681866145d7565b9050818103602083015261467a81856145d7565b9050818103604083015261468e81846145d7565b9050949350505050565b600080604083850312156146af576146ae613a84565b5b60006146bd85828601613c8c565b92505060206146ce85828601613c8c565b9150509250929050565b60006020820190506146ed6000830184613cce565b92915050565b6000606082019050818103600083015261470d818661416d565b9050818103602083015261472181856144f3565b905081810360408301526147358184613f08565b9050949350505050565b7f4e487b7100000000000000000000000000000000000000000000000000000000600052602260045260246000fd5b6000600282049050600182168061478657607f821691505b6020821081141561479a5761479961473f565b5b50919050565b7f4e487b7100000000000000000000000000000000000000000000000000000000600052601160045260246000fd5b60006147da8261387f565b91507fffffffffffffffffffffffffffffffffffffffffffffffffffffffffffffffff82141561480d5761480c6147a0565b5b600182019050919050565b7f57726f6e67207573657200000000000000000000000000000000000000000000600082015250565b600061484e600a83613cdd565b915061485982614818565b602082019050919050565b6000602082019050818103600083015261487d81614841565b9050919050565b7f506c656173652073656e642074686520636f7272656374206275796572206964600082015250565b60006148ba602083613cdd565b91506148c582614884565b602082019050919050565b600060208201905081810360008301526148e9816148ad565b9050919050565b60006148fb8261387f565b91506149068361387f565b925082821015614919576149186147a0565b5b828203905092915050565b600061492f8261387f565b915061493a8361387f565b9250827fffffffffffffffffffffffffffffffffffffffffffffffffffffffffffffffff0382111561496f5761496e6147a0565b5b828201905092915050565b7f43616c6c206164645374617274696e674e6f646528292066756e6374696f6e2060008201527f746f2061646420746865207374617274696e67206e6f6465206f66207468652060208201527f636861696e2e0000000000000000000000000000000000000000000000000000604082015250565b60006149fc604683613cdd565b9150614a078261497a565b606082019050919050565b60006020820190508181036000830152614a2b816149ef565b9050919050565b7f496e7661696c6420757365720000000000000000000000000000000000000000600082015250565b6000614a68600c83613cdd565b9150614a7382614a32565b602082019050919050565b60006020820190508181036000830152614a9781614a5b565b9050919050565b7f5472616e7366657220706f737369626c65206f6e6c792066726f6d206c61737460008201527f206e6f6465206f6620616e206974656d494420696e2074686520737570706c7960208201527f20636861696e0000000000000000000000000000000000000000000000000000604082015250565b6000614b20604683613cdd565b9150614b2b82614a9e565b606082019050919050565b60006020820190508181036000830152614b4f81614b13565b9050919050565b7f4f7264657220796574206e6f7420736869707065640000000000000000000000600082015250565b6000614b8c601583613cdd565b9150614b9782614b56565b602082019050919050565b60006020820190508181036000830152614bbb81614b7f565b9050919050565b7f4e487b7100000000000000000000000000000000000000000000000000000000600052603260045260246000fd5b7f4e487b7100000000000000000000000000000000000000000000000000000000600052603160045260246000fdfea2646970667358221220630df136b3e15785d2329e8f4fd33b86e41b7bc162518b99ec9e8876684c036064736f6c634300080a0033",
  "immutableReferences": {},
  "source": "pragma solidity >=0.4.22 <0.9.0;\n\n//import  \"./Queue.sol\";\nimport \"./user.sol\";\n\ncontract SupplyChain is User {\n\n  struct Node{\n    address owner;\n    uint ownerId;\n    string ownerName;\n    string ownerLocation;\n    string itemName;\n    uint itemid;\n    uint[] precedents;\n    bool isRetail;\n    uint cost;            //cost at which this item will be sold to next person in the chain.\n\n  }\n  struct Order{\n    uint buyerId;\n    uint sellerId;\n    uint itemId;     \n    uint prevItemNodeId;     //from prevItemNodeID we can fetch the owner also, i.e, the seller.\n  }\n\n\n  mapping (uint => Order) orders;  //OrderID to orders mapping\n  mapping(uint=> bool) orderShippingSatus;  //OrderID to shipping status mapping\n  uint orderID=1;\n  mapping(uint => Node) public nodes;   //Mapping from nodeID to nodes\n  uint totalNodes=1;        //Keeps track of the index of the current node\n  mapping(uint => uint) lastNodes;    //ItemID mapped to the last node (nodeID) of that particular item\n  mapping(uint => mapping(uint => uint)) itemIdtoOwnerIdtoNodeId;  //This mappping helps in the case when we add a connection to the node for the second or subsequent times. It will help us access the nodeID which was assigned to this node when it was first created.\n \n event orderReceived(uint _orderid);\n  event History(uint parent_itemId, uint[] children_itemIds);\n  event orderShipped(uint _orderid);\n  event StartingNode(uint _node);\n  event orderRequested (uint _orderid);\n\n  modifier checkUser(uint _userId) { \n    require (userIdtoAddress[_userId] == msg.sender, \"Wrong user\"); \n    _; \n  }\n  \n\n  //Adds new user to the Dapp\n  function addStartingNode(uint _userId, string memory _userName, uint _itemId, string memory _itemName,  string memory _location, bool _isRetail, uint _cost) external checkUser(_userId) returns(uint){\n    uint [] memory firstPrecedent;\n    uint node = totalNodes;\n    nodes[node] = Node(msg.sender, _userId, _userName, _location, _itemName, _itemId, firstPrecedent, _isRetail, _cost);\n    lastNodes[_itemId]=node;\n    itemIdtoOwnerIdtoNodeId[_itemId][_userId]= node;\n    userStock[_userId].push(Stock(userIdtoAddress[_userId], _userId, _userName, node, _itemId, _itemName,_cost,_isRetail, _location));\n    totalNodes+=1;\n    emit StartingNode(node);\n    return node;\n  }\n\n\n  function addTransaction(uint _userId, string memory _userName, string memory _location, uint _orderID, uint _itemId, string memory _itemName, bool _isRetail, uint _cost) external checkUser(_userId) payable {\n\n      //uint prevNodeId=1;\n      uint prevNodeId= orders[_orderID].prevItemNodeId;\n      require( prevNodeId != 0 , \"Call addStartingNode() function to add the starting node of the chain.\");\n      require (userIdtoAddress[_userId] == msg.sender, \"Invaild user\");\n      require( isLastNode(orders[_orderID].prevItemNodeId), \"Transfer possible only from last node of an itemID in the supply chain\");\n      //This additional check iensures that there is an approval from the sender side also before the receiver adds the node in the chain\n      require( orderShippingSatus[_orderID] == true, \"Order yet not shipped\");  \n       // Buyer should pay the exact amount of the previous node\n      require (msg.value == nodes[prevNodeId].cost);  \n   \n      addNode(prevNodeId, _userId, _userName, _location, _orderID, _itemId, _itemName, _isRetail, _cost);\n      uint sellerId= nodes[prevNodeId].ownerId;\n      \n      deleteRequestedOrders(_userId, _orderID);\n      deleteReceivedOrders(sellerId, _orderID);\n\n      emit orderReceived(_orderID);\n\n  }\n\n  function addNode(uint _prevNodeId, uint _userId, string memory _userName, string memory _location, uint _orderID, uint _itemId, string memory _itemName, bool _isRetail, uint _cost) internal {\n    \n    if(itemIdtoOwnerIdtoNodeId[_itemId][_userId] == 0) {   //First time taking raw material for a particular node (itemid,owner)\n        uint[] memory firstPrecedent= new uint[](1);     //way to create dynamic \"memory\" array in Solidity\n        firstPrecedent[0]=_prevNodeId;   \n        nodes[totalNodes]= Node(userIdtoAddress[_userId], _userId, _userName, _location, _itemName, _itemId, firstPrecedent, _isRetail, _cost);\n       // uint node= totalNodes;\n        itemIdtoOwnerIdtoNodeId[_itemId][_userId] = totalNodes;\n        lastNodes[_itemId]=totalNodes;\n        updateStockforBuyer(totalNodes, userIdtoAddress[_userId], _userId, _userName, _itemId, _itemName, _isRetail, _cost, _location);\n        totalNodes+=1;\n\n      }\n\n      //\n      else{\n        uint currNodeId= itemIdtoOwnerIdtoNodeId[_itemId][_userId];\n        nodes[currNodeId].precedents.push(_prevNodeId);\n        nodes[currNodeId].cost=_cost;\n          updateStockforBuyer(currNodeId, userIdtoAddress[_userId], userId, _userName, _itemId, _itemName, _isRetail, _cost, _location);\n      }\n\n  }\n\n  function isLastNode(uint _node) internal view returns (bool) {\n\n     return lastNodes[nodes[_node].itemid] == _node;\n  }\n\n  function orderRequest(uint _buyerId, uint _itemId, string memory _itemName, uint _sellerId) external checkUser(_buyerId) returns(uint) {\n\n   // orders[orderID]= Order(_buyerId, _sellerId, _itemId, 1);\n   uint prevNodeId = itemIdtoOwnerIdtoNodeId[_itemId][_sellerId];\n   address buyer= userIdtoAddress[_buyerId];\n   require(buyer == msg.sender, \"Please send the correct buyer id\");\n    orders[orderID]= Order(_buyerId, _sellerId, _itemId, prevNodeId);\n   \n    userRequestedOrder[_buyerId].push(RequestedOrder(_itemId, _sellerId, _itemName, orderID));\n    userIdtoOrderIdtoReqOrderInd[_buyerId][orderID]= userRequestedOrder[_buyerId].length -1 ;\n\n    userReceivedOrder[_sellerId].push(ReceivedOrder(_itemId, _buyerId, _itemName, orderID,false));\n    userIdtoOrderIdtoRecOrderInd[_sellerId][orderID] = userReceivedOrder[_sellerId].length -1 ;\n\n    updateStockforSeller(_sellerId, _itemId);  \n    orderID+=1;\n\n    emit orderRequested(orderID);\n    return orderID;\n  }\n\n\n\n\n  function orderShipping(uint _userId, uint _orderID) external checkUser(_userId) {\n    uint sellerId= orders[_orderID].sellerId;\n    require(userIdtoAddress[sellerId]== msg.sender);\n    orderShippingSatus[_orderID]= true;\n    uint arrInd= userIdtoOrderIdtoRecOrderInd[sellerId][_orderID];\n    userReceivedOrder[sellerId][arrInd].isShipped = true;\n    emit orderShipped(_orderID);\n  }\n\n\n  //Returns the details of the precedents of the given node\n  function getPrecedents(uint _node) external view returns (string[] memory, string[] memory, string[] memory){\n\n    //uint [] memory precedentsArray = new uint[](nodes[_node].precedents.length);\n    uint numberofPrecedents = nodes[_node].precedents.length;\n    string[] memory ownersNames = new string[](numberofPrecedents);\n    string[] memory ownersLocations = new string[](numberofPrecedents);\n    string[] memory itemsNames = new string[](numberofPrecedents);\n\n    for(uint i=0; i< numberofPrecedents; i++) {\n\n      uint nodeId = nodes[_node].precedents[i];\n      string memory ownerName = nodes[_node].ownerName;\n      string memory ownerLocation = nodes[_node].ownerLocation;\n      string memory itemName = nodes[_node].itemName;\n      ownersNames[i]= ownerName;\n      ownersLocations[i] = ownerLocation;\n      itemsNames[i] = itemName;\n    }\n\n    return (ownersNames, ownersLocations, itemsNames);\n  }\n\n}\n",
  "sourcePath": "/home/rdkgpian/Desktop/SupplyChain/contracts/contracts/SupplyChain.sol",
  "compiler": {
    "name": "solc",
    "version": "0.8.10+commit.fc410830.Emscripten.clang"
  },
  "schemaVersion": "3.4.3",
  "updatedAt": "2022-03-24T14:38:12.661Z",
  "devdoc": {
    "kind": "dev",
    "methods": {},
    "version": 1
  },
  "userdoc": {
    "kind": "user",
    "methods": {},
    "version": 1
  }
}