{
  "contractName": "User",
  "abi": [
    {
      "anonymous": false,
      "inputs": [
        {
          "indexed": false,
          "internalType": "uint256",
          "name": "_userId",
          "type": "uint256"
        }
      ],
      "name": "UserAdded",
      "type": "event"
    },
    {
      "inputs": [
        {
          "internalType": "uint256",
          "name": "",
          "type": "uint256"
        }
      ],
      "name": "userIdtoAddress",
      "outputs": [
        {
          "internalType": "address",
          "name": "",
          "type": "address"
        }
      ],
      "stateMutability": "view",
      "type": "function"
    },
    {
      "inputs": [
        {
          "internalType": "string",
          "name": "_userName",
          "type": "string"
        },
        {
          "internalType": "address",
          "name": "userAddress",
          "type": "address"
        }
      ],
      "name": "addNewUser",
      "outputs": [
        {
          "internalType": "uint256",
          "name": "",
          "type": "uint256"
        }
      ],
      "stateMutability": "nonpayable",
      "type": "function"
    },
    {
      "inputs": [],
      "name": "getUsers",
      "outputs": [
        {
          "components": [
            {
              "internalType": "uint256",
              "name": "userId",
              "type": "uint256"
            },
            {
              "internalType": "string",
              "name": "userName",
              "type": "string"
            }
          ],
          "internalType": "struct User.UserCredentials[]",
          "name": "",
          "type": "tuple[]"
        }
      ],
      "stateMutability": "view",
      "type": "function"
    },
    {
      "inputs": [
        {
          "internalType": "uint256",
          "name": "_userId",
          "type": "uint256"
        }
      ],
      "name": "getuserMetadata",
      "outputs": [
        {
          "components": [
            {
              "internalType": "uint256",
              "name": "itemId",
              "type": "uint256"
            },
            {
              "internalType": "string",
              "name": "itemName",
              "type": "string"
            },
            {
              "internalType": "uint256",
              "name": "cost",
              "type": "uint256"
            },
            {
              "internalType": "bool",
              "name": "isRetail",
              "type": "bool"
            }
          ],
          "internalType": "struct User.Stock[]",
          "name": "",
          "type": "tuple[]"
        },
        {
          "components": [
            {
              "internalType": "uint256",
              "name": "itemId",
              "type": "uint256"
            },
            {
              "internalType": "uint256",
              "name": "buyerId",
              "type": "uint256"
            },
            {
              "internalType": "string",
              "name": "itemName",
              "type": "string"
            },
            {
              "internalType": "uint256",
              "name": "orderId",
              "type": "uint256"
            },
            {
              "internalType": "bool",
              "name": "isShipped",
              "type": "bool"
            }
          ],
          "internalType": "struct User.ReceivedOrder[]",
          "name": "",
          "type": "tuple[]"
        },
        {
          "components": [
            {
              "internalType": "uint256",
              "name": "itemId",
              "type": "uint256"
            },
            {
              "internalType": "uint256",
              "name": "sellerId",
              "type": "uint256"
            },
            {
              "internalType": "string",
              "name": "itemName",
              "type": "string"
            },
            {
              "internalType": "uint256",
              "name": "orderId",
              "type": "uint256"
            }
          ],
          "internalType": "struct User.RequestedOrder[]",
          "name": "",
          "type": "tuple[]"
        }
      ],
      "stateMutability": "view",
      "type": "function"
    },
    {
      "inputs": [
        {
          "internalType": "uint256",
          "name": "_userId",
          "type": "uint256"
        }
      ],
      "name": "getStock",
      "outputs": [
        {
          "components": [
            {
              "internalType": "uint256",
              "name": "itemId",
              "type": "uint256"
            },
            {
              "internalType": "string",
              "name": "itemName",
              "type": "string"
            },
            {
              "internalType": "uint256",
              "name": "cost",
              "type": "uint256"
            },
            {
              "internalType": "bool",
              "name": "isRetail",
              "type": "bool"
            }
          ],
          "internalType": "struct User.Stock[]",
          "name": "",
          "type": "tuple[]"
        }
      ],
      "stateMutability": "view",
      "type": "function"
    },
    {
      "inputs": [
        {
          "internalType": "uint256",
          "name": "_userId",
          "type": "uint256"
        }
      ],
      "name": "getReceivedOrders",
      "outputs": [
        {
          "components": [
            {
              "internalType": "uint256",
              "name": "itemId",
              "type": "uint256"
            },
            {
              "internalType": "uint256",
              "name": "buyerId",
              "type": "uint256"
            },
            {
              "internalType": "string",
              "name": "itemName",
              "type": "string"
            },
            {
              "internalType": "uint256",
              "name": "orderId",
              "type": "uint256"
            },
            {
              "internalType": "bool",
              "name": "isShipped",
              "type": "bool"
            }
          ],
          "internalType": "struct User.ReceivedOrder[]",
          "name": "",
          "type": "tuple[]"
        }
      ],
      "stateMutability": "view",
      "type": "function"
    },
    {
      "inputs": [
        {
          "internalType": "uint256",
          "name": "_userId",
          "type": "uint256"
        }
      ],
      "name": "getRequestedOrders",
      "outputs": [
        {
          "components": [
            {
              "internalType": "uint256",
              "name": "itemId",
              "type": "uint256"
            },
            {
              "internalType": "uint256",
              "name": "sellerId",
              "type": "uint256"
            },
            {
              "internalType": "string",
              "name": "itemName",
              "type": "string"
            },
            {
              "internalType": "uint256",
              "name": "orderId",
              "type": "uint256"
            }
          ],
          "internalType": "struct User.RequestedOrder[]",
          "name": "",
          "type": "tuple[]"
        }
      ],
      "stateMutability": "view",
      "type": "function"
    }
  ],
  "bytecode": "0x6080604052600160065534801561001557600080fd5b506115cf806100256000396000f3fe608060405234801561001057600080fd5b5060043610610099576000357c0100000000000000000000000000000000000000000000000000000000900480633ab7d09a116100785780633ab7d09a1461011c5780636d4424711461014c578063d57af4211461017c578063f8952390146101ac57610099565b8062ce8e3e1461009e578063102804c2146100bc57806320d2db1c146100ec575b600080fd5b6100a66101de565b6040516100b39190610d9f565b60405180910390f35b6100d660048036038101906100d19190610f68565b6102d9565b6040516100e39190610fd3565b60405180910390f35b6101066004803603810190610101919061101a565b6103f6565b604051610113919061116c565b60405180910390f35b6101366004803603810190610131919061101a565b610518565b60405161014391906112ce565b60405180910390f35b6101666004803603810190610161919061101a565b61064a565b6040516101739190611428565b60405180910390f35b6101966004803603810190610191919061101a565b610787565b6040516101a39190611459565b60405180910390f35b6101c660048036038101906101c1919061101a565b6107ba565b6040516101d593929190611474565b60405180910390f35b60606007805480602002602001604051908101604052809291908181526020016000905b828210156102d057838290600052602060002090600202016040518060400160405290816000820154815260200160018201805461023f906114ef565b80601f016020809104026020016040519081016040528092919081815260200182805461026b906114ef565b80156102b85780601f1061028d576101008083540402835291602001916102b8565b820191906000526020600020905b81548152906001019060200180831161029b57829003601f168201915b50505050508152505081526020019060010190610202565b50505050905090565b6000600760405180604001604052806006548152602001858152509080600181540180825580915050600190039060005260206000209060020201600090919091909150600082015181600001556020820151816001019080519060200190610343929190610b4b565b5050508160086000600654815260200190815260200160002060006101000a81548173ffffffffffffffffffffffffffffffffffffffff021916908373ffffffffffffffffffffffffffffffffffffffff160217905550600660008154809291906103ad90611550565b91905055507f27412bb19840b11057dee7c7019767312555c4497d8d4c2383fa6b7791bf014b6006546040516103e39190610fd3565b60405180910390a1600654905092915050565b606060026000838152602001908152602001600020805480602002602001604051908101604052809291908181526020016000905b8282101561050d57838290600052602060002090600402016040518060800160405290816000820154815260200160018201548152602001600282018054610472906114ef565b80601f016020809104026020016040519081016040528092919081815260200182805461049e906114ef565b80156104eb5780601f106104c0576101008083540402835291602001916104eb565b820191906000526020600020905b8154815290600101906020018083116104ce57829003601f168201915b505050505081526020016003820154815250508152602001906001019061042b565b505050509050919050565b6060600080838152602001908152602001600020805480602002602001604051908101604052809291908181526020016000905b8282101561063f578382906000526020600020906004020160405180608001604052908160008201548152602001600182018054610589906114ef565b80601f01602080910402602001604051908101604052809291908181526020018280546105b5906114ef565b80156106025780601f106105d757610100808354040283529160200191610602565b820191906000526020600020905b8154815290600101906020018083116105e557829003601f168201915b50505050508152602001600282015481526020016003820160009054906101000a900460ff1615151515815250508152602001906001019061054c565b505050509050919050565b606060016000838152602001908152602001600020805480602002602001604051908101604052809291908181526020016000905b8282101561077c57838290600052602060002090600502016040518060a001604052908160008201548152602001600182015481526020016002820180546106c6906114ef565b80601f01602080910402602001604051908101604052809291908181526020018280546106f2906114ef565b801561073f5780601f106107145761010080835404028352916020019161073f565b820191906000526020600020905b81548152906001019060200180831161072257829003601f168201915b50505050508152602001600382015481526020016004820160009054906101000a900460ff1615151515815250508152602001906001019061067f565b505050509050919050565b60086020528060005260406000206000915054906101000a900473ffffffffffffffffffffffffffffffffffffffff1681565b6060806060600080858152602001908152602001600020600160008681526020019081526020016000206002600087815260200190815260200160002082805480602002602001604051908101604052809291908181526020016000905b8282101561090b578382906000526020600020906004020160405180608001604052908160008201548152602001600182018054610855906114ef565b80601f0160208091040260200160405190810160405280929190818152602001828054610881906114ef565b80156108ce5780601f106108a3576101008083540402835291602001916108ce565b820191906000526020600020905b8154815290600101906020018083116108b157829003601f168201915b50505050508152602001600282015481526020016003820160009054906101000a900460ff16151515158152505081526020019060010190610818565b50505050925081805480602002602001604051908101604052809291908181526020016000905b82821015610a2f57838290600052602060002090600502016040518060a00160405290816000820154815260200160018201548152602001600282018054610979906114ef565b80601f01602080910402602001604051908101604052809291908181526020018280546109a5906114ef565b80156109f25780601f106109c7576101008083540402835291602001916109f2565b820191906000526020600020905b8154815290600101906020018083116109d557829003601f168201915b50505050508152602001600382015481526020016004820160009054906101000a900460ff16151515158152505081526020019060010190610932565b50505050915080805480602002602001604051908101604052809291908181526020016000905b82821015610b3857838290600052602060002090600402016040518060800160405290816000820154815260200160018201548152602001600282018054610a9d906114ef565b80601f0160208091040260200160405190810160405280929190818152602001828054610ac9906114ef565b8015610b165780601f10610aeb57610100808354040283529160200191610b16565b820191906000526020600020905b815481529060010190602001808311610af957829003601f168201915b5050505050815260200160038201548152505081526020019060010190610a56565b5050505090509250925092509193909250565b828054610b57906114ef565b90600052602060002090601f016020900481019282610b795760008555610bc0565b82601f10610b9257805160ff1916838001178555610bc0565b82800160010185558215610bc0579182015b82811115610bbf578251825591602001919060010190610ba4565b5b509050610bcd9190610bd1565b5090565b5b80821115610bea576000816000905550600101610bd2565b5090565b600081519050919050565b600082825260208201905092915050565b6000819050602082019050919050565b6000819050919050565b610c2d81610c1a565b82525050565b600081519050919050565b600082825260208201905092915050565b60005b83811015610c6d578082015181840152602081019050610c52565b83811115610c7c576000848401525b50505050565b6000601f19601f8301169050919050565b6000610c9e82610c33565b610ca88185610c3e565b9350610cb8818560208601610c4f565b610cc181610c82565b840191505092915050565b6000604083016000830151610ce46000860182610c24565b5060208301518482036020860152610cfc8282610c93565b9150508091505092915050565b6000610d158383610ccc565b905092915050565b6000602082019050919050565b6000610d3582610bee565b610d3f8185610bf9565b935083602082028501610d5185610c0a565b8060005b85811015610d8d5784840389528151610d6e8582610d09565b9450610d7983610d1d565b925060208a01995050600181019050610d55565b50829750879550505050505092915050565b60006020820190508181036000830152610db98184610d2a565b905092915050565b6000604051905090565b600080fd5b600080fd5b600080fd5b600080fd5b7f4e487b7100000000000000000000000000000000000000000000000000000000600052604160045260246000fd5b610e1782610c82565b810181811067ffffffffffffffff82111715610e3657610e35610ddf565b5b80604052505050565b6000610e49610dc1565b9050610e558282610e0e565b919050565b600067ffffffffffffffff821115610e7557610e74610ddf565b5b610e7e82610c82565b9050602081019050919050565b82818337600083830152505050565b6000610ead610ea884610e5a565b610e3f565b905082815260208101848484011115610ec957610ec8610dda565b5b610ed4848285610e8b565b509392505050565b600082601f830112610ef157610ef0610dd5565b5b8135610f01848260208601610e9a565b91505092915050565b600073ffffffffffffffffffffffffffffffffffffffff82169050919050565b6000610f3582610f0a565b9050919050565b610f4581610f2a565b8114610f5057600080fd5b50565b600081359050610f6281610f3c565b92915050565b60008060408385031215610f7f57610f7e610dcb565b5b600083013567ffffffffffffffff811115610f9d57610f9c610dd0565b5b610fa985828601610edc565b9250506020610fba85828601610f53565b9150509250929050565b610fcd81610c1a565b82525050565b6000602082019050610fe86000830184610fc4565b92915050565b610ff781610c1a565b811461100257600080fd5b50565b60008135905061101481610fee565b92915050565b6000602082840312156110305761102f610dcb565b5b600061103e84828501611005565b91505092915050565b600081519050919050565b600082825260208201905092915050565b6000819050602082019050919050565b600060808301600083015161108b6000860182610c24565b50602083015161109e6020860182610c24565b50604083015184820360408601526110b68282610c93565b91505060608301516110cb6060860182610c24565b508091505092915050565b60006110e28383611073565b905092915050565b6000602082019050919050565b600061110282611047565b61110c8185611052565b93508360208202850161111e85611063565b8060005b8581101561115a578484038952815161113b85826110d6565b9450611146836110ea565b925060208a01995050600181019050611122565b50829750879550505050505092915050565b6000602082019050818103600083015261118681846110f7565b905092915050565b600081519050919050565b600082825260208201905092915050565b6000819050602082019050919050565b60008115159050919050565b6111cf816111ba565b82525050565b60006080830160008301516111ed6000860182610c24565b50602083015184820360208601526112058282610c93565b915050604083015161121a6040860182610c24565b50606083015161122d60608601826111c6565b508091505092915050565b600061124483836111d5565b905092915050565b6000602082019050919050565b60006112648261118e565b61126e8185611199565b935083602082028501611280856111aa565b8060005b858110156112bc578484038952815161129d8582611238565b94506112a88361124c565b925060208a01995050600181019050611284565b50829750879550505050505092915050565b600060208201905081810360008301526112e88184611259565b905092915050565b600081519050919050565b600082825260208201905092915050565b6000819050602082019050919050565b600060a0830160008301516113346000860182610c24565b5060208301516113476020860182610c24565b506040830151848203604086015261135f8282610c93565b91505060608301516113746060860182610c24565b50608083015161138760808601826111c6565b508091505092915050565b600061139e838361131c565b905092915050565b6000602082019050919050565b60006113be826112f0565b6113c881856112fb565b9350836020820285016113da8561130c565b8060005b8581101561141657848403895281516113f78582611392565b9450611402836113a6565b925060208a019950506001810190506113de565b50829750879550505050505092915050565b6000602082019050818103600083015261144281846113b3565b905092915050565b61145381610f2a565b82525050565b600060208201905061146e600083018461144a565b92915050565b6000606082019050818103600083015261148e8186611259565b905081810360208301526114a281856113b3565b905081810360408301526114b681846110f7565b9050949350505050565b7f4e487b7100000000000000000000000000000000000000000000000000000000600052602260045260246000fd5b6000600282049050600182168061150757607f821691505b6020821081141561151b5761151a6114c0565b5b50919050565b7f4e487b7100000000000000000000000000000000000000000000000000000000600052601160045260246000fd5b600061155b82610c1a565b91507fffffffffffffffffffffffffffffffffffffffffffffffffffffffffffffffff82141561158e5761158d611521565b5b60018201905091905056fea264697066735822122016210084ff38ef62d149b68b73c445505e260fe054132390e6de9c63622caa1c64736f6c634300080a0033",
  "immutableReferences": {},
  "source": "pragma solidity >=0.4.22 <0.9.0;\n\ncontract User {\n\n  struct Stock {\n    uint itemId;\n    string itemName;\n    uint cost;\n    bool isRetail;\n\n  }\n  struct ReceivedOrder {\n    uint itemId;\n    uint buyerId;\n    string itemName;\n    uint orderId;\n    bool isShipped;\n  }\n  struct RequestedOrder {\n    uint itemId;\n    uint sellerId;\n    string itemName;\n    uint orderId; \n  }\n \n  event UserAdded(uint _userId);\n\n  mapping(uint => Stock[]) userStock;\n  mapping(uint => ReceivedOrder[]) userReceivedOrder;\n  mapping(uint => RequestedOrder[]) userRequestedOrder;\n  mapping(uint=> mapping(uint => uint)) userIdtoItemIdtoStockInd;\n  mapping(uint=> mapping(uint => uint))  userIdtoOrderIdtoRecOrderInd;\n  mapping (uint=> mapping(uint => uint)) userIdtoOrderIdtoReqOrderInd;\n\n  struct UserCredentials{\n    uint userId;\n    string userName;\n  }\n\n  uint userId=1;\n  UserCredentials[] users;\n  mapping(uint => address) public userIdtoAddress;\n\n\n  function addNewUser(string memory _userName, address userAddress) external returns(uint) {\n\n   // userCredentials[userId]= userName;\n    users.push(UserCredentials(userId,_userName));\n    userIdtoAddress[userId] = userAddress;\n    userId++;\n     emit UserAdded(userId);\n    return userId;\n\n   \n  }\n\n  // Gets the credentials of all the users\n  function getUsers() external view returns (UserCredentials[] memory) {\n   \n    return users;\n  }\n\n  //Gets metadata for a specific user\n  function getuserMetadata(uint _userId) external view returns (Stock[] memory, ReceivedOrder[] memory, RequestedOrder[] memory) {\n    \n    return (userStock[_userId],userReceivedOrder[_userId], userRequestedOrder[_userId]);\n  }\n\n  //Gets the stock for a particular user\n  function getStock(uint _userId) external view returns(Stock[] memory) {\n\n      return userStock[_userId];\n  }\n\n\n  //Gets the received orders for a particular user\n  function getReceivedOrders(uint _userId) external view returns(ReceivedOrder[] memory) {\n\n      return userReceivedOrder[_userId];\n  }\n\n  //Gets the requested orders for a particular user\n  function getRequestedOrders(uint _userId) external view returns(RequestedOrder[] memory) {\n\n      return userRequestedOrder[_userId];\n  }\n\n  function updateStockforBuyer(uint _buyerId,  uint _itemId,  string memory _itemName, bool _isRetail, uint _cost) internal {\n\n      userStock[_buyerId].push(Stock(_itemId, _itemName,_cost,_isRetail));\n      userIdtoItemIdtoStockInd[_buyerId][_itemId] = userStock[_buyerId].length -1;\n  }\n\n  function updateStockforSeller(uint _sellerId, uint _itemId) internal {\n\n      /*Deleting the required element from stocksInd array and replacing that index in the array \n        with the last element of the array.*/\n      uint arrLen=userStock[_sellerId].length;\n      if(arrLen == 1) {\n        delete userStock[_sellerId][0];\n         delete userIdtoItemIdtoStockInd[_sellerId][_itemId];\n         return;\n      }\n      uint arrInd= userIdtoItemIdtoStockInd[_sellerId][_itemId];\n      userStock[_sellerId][arrInd]=userStock[_sellerId][arrLen-1];\n      userStock[_sellerId].pop();\n      delete userIdtoItemIdtoStockInd[_sellerId][_itemId];\n\n      uint temp_itemId= userStock[_sellerId][arrInd].itemId;\n      userIdtoItemIdtoStockInd[_sellerId][temp_itemId]= arrInd;\n  }\n\n  function deleteOrders(uint _buyerId, uint _sellerId, uint _orderId ) internal {\n\n\n\n      uint arrLen=userRequestedOrder[_buyerId].length;\n      if(arrLen == 1) {\n        delete userRequestedOrder[_buyerId][0];\n        delete userIdtoOrderIdtoReqOrderInd[_buyerId][_orderId];\n      }\n      uint arrInd= userIdtoOrderIdtoReqOrderInd[_buyerId][_orderId];\n      userRequestedOrder[_buyerId][arrInd]=userRequestedOrder[_buyerId][arrLen-1];\n      userRequestedOrder[_buyerId].pop();\n      delete userIdtoOrderIdtoReqOrderInd[_buyerId][_orderId];\n      uint temp_orderId = userRequestedOrder[_buyerId][arrInd].orderId;\n      userIdtoOrderIdtoReqOrderInd[_buyerId][temp_orderId]= arrInd;\n\n      /*Deleting the required element from recOrdersInd array and replacing that index in the array \n        with the last element of the array.*/\n      arrLen=userReceivedOrder[_sellerId].length;\n      if(arrLen == 1) {\n        delete userReceivedOrder[_buyerId][0];\n        delete userIdtoOrderIdtoRecOrderInd[_buyerId][0];\n      }\n      arrInd= userIdtoOrderIdtoRecOrderInd[_sellerId][_orderId];\n      userReceivedOrder[_sellerId][arrInd]=userReceivedOrder[_sellerId][arrLen-1];\n      userReceivedOrder[_sellerId].pop();\n      delete userIdtoOrderIdtoRecOrderInd[_sellerId][_orderId];\n      temp_orderId= userReceivedOrder[_sellerId][arrInd].orderId;\n      userIdtoOrderIdtoRecOrderInd[_sellerId][temp_orderId]= arrInd;\n\n  }\n}",
  "sourcePath": "/home/rdkgpian/Desktop/SupplyChain/contracts/contracts/user.sol",
  "compiler": {
    "name": "solc",
    "version": "0.8.10+commit.fc410830.Emscripten.clang"
  },
  "schemaVersion": "3.4.3",
  "updatedAt": "2022-02-21T15:10:32.278Z",
  "devdoc": {
    "kind": "dev",
    "methods": {},
    "version": 1
  },
  "userdoc": {
    "kind": "user",
    "methods": {},
    "version": 1
  }
}